{
  "_format": "hh-sol-artifact-1",
  "contractName": "TruthBox",
  "sourceName": "contracts/TruthBox.sol",
  "abi": [
    {
      "inputs": [
        {
          "internalType": "address",
          "name": "addrManager_",
          "type": "address"
        }
      ],
      "stateMutability": "nonpayable",
      "type": "constructor"
    },
    {
      "inputs": [],
      "name": "AmountIsZero",
      "type": "error"
    },
    {
      "inputs": [],
      "name": "AuctionOver",
      "type": "error"
    },
    {
      "inputs": [],
      "name": "AvailableBuyer",
      "type": "error"
    },
    {
      "inputs": [],
      "name": "BlackTokenIdNotExist",
      "type": "error"
    },
    {
      "inputs": [],
      "name": "BoxAlreadyInBlacklist",
      "type": "error"
    },
    {
      "inputs": [],
      "name": "BoxNotExists",
      "type": "error"
    },
    {
      "inputs": [],
      "name": "DeadlineIsOver",
      "type": "error"
    },
    {
      "inputs": [],
      "name": "DeadlineNotIn30days",
      "type": "error"
    },
    {
      "inputs": [],
      "name": "DeadlineNotOver",
      "type": "error"
    },
    {
      "inputs": [],
      "name": "EmptyBoxInfoCID",
      "type": "error"
    },
    {
      "inputs": [],
      "name": "EmptyKey",
      "type": "error"
    },
    {
      "inputs": [],
      "name": "EmptyPrice",
      "type": "error"
    },
    {
      "inputs": [],
      "name": "EmptyTokenCID",
      "type": "error"
    },
    {
      "inputs": [],
      "name": "EmptyTokenURI",
      "type": "error"
    },
    {
      "inputs": [],
      "name": "InBlacklist",
      "type": "error"
    },
    {
      "inputs": [],
      "name": "InvalidBoxId",
      "type": "error"
    },
    {
      "inputs": [],
      "name": "InvalidCaller",
      "type": "error"
    },
    {
      "inputs": [],
      "name": "InvalidContractAddress",
      "type": "error"
    },
    {
      "inputs": [],
      "name": "InvalidContractCaller",
      "type": "error"
    },
    {
      "inputs": [],
      "name": "InvalidDeadline",
      "type": "error"
    },
    {
      "inputs": [],
      "name": "InvalidERC20Interface",
      "type": "error"
    },
    {
      "inputs": [],
      "name": "InvalidImplementation",
      "type": "error"
    },
    {
      "inputs": [],
      "name": "InvalidPeriod",
      "type": "error"
    },
    {
      "inputs": [],
      "name": "InvalidRate",
      "type": "error"
    },
    {
      "inputs": [],
      "name": "InvalidSeconds",
      "type": "error"
    },
    {
      "inputs": [],
      "name": "InvalidStatus",
      "type": "error"
    },
    {
      "inputs": [],
      "name": "InvalidToken",
      "type": "error"
    },
    {
      "inputs": [],
      "name": "NotAdmin",
      "type": "error"
    },
    {
      "inputs": [],
      "name": "NotAdminOrDAO",
      "type": "error"
    },
    {
      "inputs": [],
      "name": "NotBuyer",
      "type": "error"
    },
    {
      "inputs": [],
      "name": "NotDAO",
      "type": "error"
    },
    {
      "inputs": [],
      "name": "NotInSecrecy",
      "type": "error"
    },
    {
      "inputs": [],
      "name": "NotMinter",
      "type": "error"
    },
    {
      "inputs": [],
      "name": "PublicTimeNotEnd",
      "type": "error"
    },
    {
      "inputs": [],
      "name": "TokenAlreadyExists",
      "type": "error"
    },
    {
      "inputs": [],
      "name": "TokenNotExists",
      "type": "error"
    },
    {
      "inputs": [],
      "name": "TokenNotSupported",
      "type": "error"
    },
    {
      "inputs": [],
      "name": "ZeroAddress",
      "type": "error"
    },
    {
      "anonymous": false,
      "inputs": [
        {
          "indexed": true,
          "internalType": "uint256",
          "name": "boxId",
          "type": "uint256"
        },
        {
          "indexed": true,
          "internalType": "uint256",
          "name": "userId",
          "type": "uint256"
        },
        {
          "indexed": false,
          "internalType": "string",
          "name": "boxInfoCID",
          "type": "string"
        }
      ],
      "name": "BoxCreated",
      "type": "event"
    },
    {
      "anonymous": false,
      "inputs": [
        {
          "indexed": true,
          "internalType": "uint256",
          "name": "boxId",
          "type": "uint256"
        },
        {
          "indexed": false,
          "internalType": "enum Status",
          "name": "status",
          "type": "uint8"
        }
      ],
      "name": "BoxStatusChanged",
      "type": "event"
    },
    {
      "anonymous": false,
      "inputs": [
        {
          "indexed": true,
          "internalType": "uint256",
          "name": "boxId",
          "type": "uint256"
        },
        {
          "indexed": false,
          "internalType": "uint256",
          "name": "deadline",
          "type": "uint256"
        }
      ],
      "name": "DeadlineChanged",
      "type": "event"
    },
    {
      "anonymous": false,
      "inputs": [
        {
          "indexed": true,
          "internalType": "uint256",
          "name": "boxId",
          "type": "uint256"
        },
        {
          "indexed": false,
          "internalType": "uint256",
          "name": "price",
          "type": "uint256"
        }
      ],
      "name": "PriceChanged",
      "type": "event"
    },
    {
      "anonymous": false,
      "inputs": [
        {
          "indexed": false,
          "internalType": "uint256",
          "name": "boxId",
          "type": "uint256"
        },
        {
          "indexed": false,
          "internalType": "bytes",
          "name": "privateKey",
          "type": "bytes"
        },
        {
          "indexed": true,
          "internalType": "uint256",
          "name": "userId",
          "type": "uint256"
        }
      ],
      "name": "PrivateKeyPublished",
      "type": "event"
    },
    {
      "inputs": [
        {
          "internalType": "uint256",
          "name": "boxId_",
          "type": "uint256"
        }
      ],
      "name": "addBoxToBlacklist",
      "outputs": [],
      "stateMutability": "nonpayable",
      "type": "function"
    },
    {
      "inputs": [
        {
          "internalType": "uint256",
          "name": "boxId_",
          "type": "uint256"
        },
        {
          "internalType": "uint256",
          "name": "seconds_",
          "type": "uint256"
        }
      ],
      "name": "addDeadline",
      "outputs": [],
      "stateMutability": "nonpayable",
      "type": "function"
    },
    {
      "inputs": [],
      "name": "admin",
      "outputs": [
        {
          "internalType": "address",
          "name": "",
          "type": "address"
        }
      ],
      "stateMutability": "view",
      "type": "function"
    },
    {
      "inputs": [
        {
          "internalType": "address",
          "name": "to_",
          "type": "address"
        },
        {
          "internalType": "string",
          "name": "tokenCID_",
          "type": "string"
        },
        {
          "internalType": "string",
          "name": "boxInfoCID_",
          "type": "string"
        },
        {
          "internalType": "bytes",
          "name": "key_",
          "type": "bytes"
        },
        {
          "internalType": "uint256",
          "name": "price_",
          "type": "uint256"
        }
      ],
      "name": "create",
      "outputs": [
        {
          "internalType": "uint256",
          "name": "",
          "type": "uint256"
        }
      ],
      "stateMutability": "nonpayable",
      "type": "function"
    },
    {
      "inputs": [
        {
          "internalType": "address",
          "name": "to_",
          "type": "address"
        },
        {
          "internalType": "string",
          "name": "tokenCID_",
          "type": "string"
        },
        {
          "internalType": "string",
          "name": "boxInfoCID_",
          "type": "string"
        }
      ],
      "name": "createAndPublish",
      "outputs": [
        {
          "internalType": "uint256",
          "name": "",
          "type": "uint256"
        }
      ],
      "stateMutability": "nonpayable",
      "type": "function"
    },
    {
      "inputs": [
        {
          "internalType": "uint256",
          "name": "boxId_",
          "type": "uint256"
        }
      ],
      "name": "delay",
      "outputs": [],
      "stateMutability": "nonpayable",
      "type": "function"
    },
    {
      "inputs": [
        {
          "internalType": "uint256",
          "name": "boxId_",
          "type": "uint256"
        },
        {
          "internalType": "uint256",
          "name": "time_",
          "type": "uint256"
        }
      ],
      "name": "extendDeadline",
      "outputs": [],
      "stateMutability": "nonpayable",
      "type": "function"
    },
    {
      "inputs": [
        {
          "internalType": "uint256",
          "name": "boxId_",
          "type": "uint256"
        }
      ],
      "name": "getBasicData",
      "outputs": [
        {
          "internalType": "enum Status",
          "name": "",
          "type": "uint8"
        },
        {
          "internalType": "uint256",
          "name": "",
          "type": "uint256"
        },
        {
          "internalType": "uint256",
          "name": "",
          "type": "uint256"
        }
      ],
      "stateMutability": "view",
      "type": "function"
    },
    {
      "inputs": [
        {
          "internalType": "uint256",
          "name": "boxId_",
          "type": "uint256"
        }
      ],
      "name": "getDeadline",
      "outputs": [
        {
          "internalType": "uint256",
          "name": "",
          "type": "uint256"
        }
      ],
      "stateMutability": "view",
      "type": "function"
    },
    {
      "inputs": [
        {
          "internalType": "uint256",
          "name": "boxId_",
          "type": "uint256"
        }
      ],
      "name": "getPrice",
      "outputs": [
        {
          "internalType": "uint256",
          "name": "",
          "type": "uint256"
        }
      ],
      "stateMutability": "view",
      "type": "function"
    },
    {
      "inputs": [
        {
          "internalType": "uint256",
          "name": "boxId_",
          "type": "uint256"
        },
        {
          "internalType": "bytes",
          "name": "siweToken_",
          "type": "bytes"
        }
      ],
      "name": "getPrivateData",
      "outputs": [
        {
          "internalType": "bytes",
          "name": "",
          "type": "bytes"
        }
      ],
      "stateMutability": "view",
      "type": "function"
    },
    {
      "inputs": [
        {
          "internalType": "uint256",
          "name": "boxId_",
          "type": "uint256"
        }
      ],
      "name": "getStatus",
      "outputs": [
        {
          "internalType": "enum Status",
          "name": "",
          "type": "uint8"
        }
      ],
      "stateMutability": "view",
      "type": "function"
    },
    {
      "inputs": [],
      "name": "implementation",
      "outputs": [
        {
          "internalType": "address",
          "name": "",
          "type": "address"
        }
      ],
      "stateMutability": "view",
      "type": "function"
    },
    {
      "inputs": [],
      "name": "incrementRate",
      "outputs": [
        {
          "internalType": "uint8",
          "name": "",
          "type": "uint8"
        }
      ],
      "stateMutability": "view",
      "type": "function"
    },
    {
      "inputs": [
        {
          "internalType": "uint256",
          "name": "boxId_",
          "type": "uint256"
        }
      ],
      "name": "isInBlacklist",
      "outputs": [
        {
          "internalType": "bool",
          "name": "",
          "type": "bool"
        }
      ],
      "stateMutability": "view",
      "type": "function"
    },
    {
      "inputs": [
        {
          "internalType": "uint256",
          "name": "boxId_",
          "type": "uint256"
        },
        {
          "internalType": "bytes",
          "name": "siweToken_",
          "type": "bytes"
        }
      ],
      "name": "minterOf",
      "outputs": [
        {
          "internalType": "address",
          "name": "",
          "type": "address"
        }
      ],
      "stateMutability": "view",
      "type": "function"
    },
    {
      "inputs": [
        {
          "internalType": "uint256",
          "name": "boxId_",
          "type": "uint256"
        }
      ],
      "name": "minterOf",
      "outputs": [
        {
          "internalType": "address",
          "name": "",
          "type": "address"
        }
      ],
      "stateMutability": "view",
      "type": "function"
    },
    {
      "inputs": [
        {
          "internalType": "uint256",
          "name": "boxId_",
          "type": "uint256"
        }
      ],
      "name": "minterOf_debug",
      "outputs": [
        {
          "internalType": "address",
          "name": "",
          "type": "address"
        }
      ],
      "stateMutability": "view",
      "type": "function"
    },
    {
      "inputs": [],
      "name": "nextBoxId",
      "outputs": [
        {
          "internalType": "uint256",
          "name": "",
          "type": "uint256"
        }
      ],
      "stateMutability": "view",
      "type": "function"
    },
    {
      "inputs": [
        {
          "internalType": "uint256",
          "name": "boxId_",
          "type": "uint256"
        }
      ],
      "name": "publishByBuyer",
      "outputs": [],
      "stateMutability": "nonpayable",
      "type": "function"
    },
    {
      "inputs": [
        {
          "internalType": "uint256",
          "name": "boxId_",
          "type": "uint256"
        }
      ],
      "name": "publishByMinter",
      "outputs": [],
      "stateMutability": "nonpayable",
      "type": "function"
    },
    {
      "inputs": [],
      "name": "setAddress",
      "outputs": [],
      "stateMutability": "nonpayable",
      "type": "function"
    },
    {
      "inputs": [
        {
          "internalType": "address",
          "name": "addrManager_",
          "type": "address"
        }
      ],
      "name": "setAddressManager",
      "outputs": [],
      "stateMutability": "nonpayable",
      "type": "function"
    },
    {
      "inputs": [
        {
          "internalType": "address",
          "name": "newAdmin_",
          "type": "address"
        }
      ],
      "name": "setAdmin",
      "outputs": [],
      "stateMutability": "nonpayable",
      "type": "function"
    },
    {
      "inputs": [
        {
          "internalType": "uint256",
          "name": "boxId_",
          "type": "uint256"
        },
        {
          "internalType": "uint256",
          "name": "price_",
          "type": "uint256"
        },
        {
          "internalType": "enum Status",
          "name": "status_",
          "type": "uint8"
        },
        {
          "internalType": "uint256",
          "name": "deadline_",
          "type": "uint256"
        }
      ],
      "name": "setBasicData",
      "outputs": [],
      "stateMutability": "nonpayable",
      "type": "function"
    },
    {
      "inputs": [
        {
          "internalType": "uint8",
          "name": "rate_",
          "type": "uint8"
        }
      ],
      "name": "setIncrementRate",
      "outputs": [],
      "stateMutability": "nonpayable",
      "type": "function"
    },
    {
      "inputs": [
        {
          "internalType": "uint256",
          "name": "boxId_",
          "type": "uint256"
        },
        {
          "internalType": "uint256",
          "name": "price_",
          "type": "uint256"
        }
      ],
      "name": "setPrice",
      "outputs": [],
      "stateMutability": "nonpayable",
      "type": "function"
    },
    {
      "inputs": [
        {
          "internalType": "uint256",
          "name": "boxId_",
          "type": "uint256"
        },
        {
          "internalType": "enum Status",
          "name": "status_",
          "type": "uint8"
        }
      ],
      "name": "setStatus",
      "outputs": [],
      "stateMutability": "nonpayable",
      "type": "function"
    },
    {
      "inputs": [
        {
          "internalType": "address",
          "name": "newImplementation_",
          "type": "address"
        }
      ],
      "name": "upgrade",
      "outputs": [],
      "stateMutability": "nonpayable",
      "type": "function"
    }
  ],
  "bytecode": "0x6080346100b457601f61259638819003918201601f19168301916001600160401b038311848410176100b9578084926020946040528339810103126100b457516001600160a01b038116908190036100b4577fb53127684a568b3173ae13b9f8a6016e243e63b6e8ee1178d6a717850b5d610380546001600160a01b03199081163317909155600080549091169190911790556005805460ff60a01b1916601960a31b1790556040516124c690816100d08239f35b600080fd5b634e487b7160e01b600052604160045260246000fdfe608080604052600436101561001357600080fd5b600090813560e01c9081630652b57a14611cb257508063088cbf7e14611c8e5780630900f01014611c035780632d1fdef614611ba5578063345b6821146119295780634b5c4d70146117145780635c60da1b146116cc5780635c622a0e1461169e5780635ebad50014611680578063704b6c021461160557806382862275146115d85780639945c0cf146115425780639ae35d90146114ff5780639e942ace1461146b578063aaf89bb914611392578063baf9896b14610f54578063bdc908e014610eb3578063cdae6a4414610e3d578063d896dd6414610db5578063da4e7036146107cb578063de0b05ed14610788578063e064371b14610757578063e0bc85c914610707578063e656927514610404578063e7572230146103d7578063f330ec321461028f578063f7d97577146101e9578063f851a440146101b35763ffddb7bc1461016057600080fd5b346101b05760203660031901126101b0576060906040600435916101838361210e565b92815260076020522060026001820154910154906101a46040518094611e7e565b60208301526040820152f35b80fd5b50346101b057806003193601126101b057600080516020612411833981519152546040516001600160a01b039091168152602090f35b50346101b0576101f836611d29565b825460405163103864a360e11b815233600482015290602090829060249082906001600160a01b03165afa908115610284578491610255575b5015610243576102409161232c565b80f35b6040516348f5c3ed60e01b8152600490fd5b610277915060203d60201161027d575b61026f8183611d88565b810190611eef565b38610231565b503d610265565b6040513d86823e3d90fd5b50346101b05760203660031901126101b0576004356102ad81611fb5565b6102b681611fd8565b8082526007602052604082206001015460055483906001600160a01b0316803b156103d357818091606460405180948193630d9411c960e31b83528960048401523360248401528860448401525af180156103c8576103b0575b505060ff60055460a01c169081810291818304149015171561039c57606461033991048261232c565b8060005260076020526002604060002001546213c680810180911161038657602060008051602061243183398151915291836000526007825280600260406000200155604051908152a280f35b634e487b7160e01b600052601160045260246000fd5b634e487b7160e01b83526011600452602483fd5b6103b990611d3f565b6103c4578238610310565b8280fd5b6040513d84823e3d90fd5b5080fd5b50346101b05760203660031901126101b05760016040602092600435815260078452200154604051908152f35b50346101b057806003193601126101b05780546001600160a01b0390811633811415806106ec575b610243576040516326889ba960e11b815260208082600481865afa9182156106e15785926106c2575b5060405163697b932d60e11b81528181600481875afa9081156106b757869161069a575b50604051636209ec2d60e01b81528281600481885afa90811561068f578791610672575b506040516350ec99a760e01b8152918383600481895afa9283156106485760049685918a95610653575b50604051635897591960e01b815297889182905afa94851561064857879687958a9761060c575b505084929183809216801515806105fe575b6105e5575b5016801515806105d7575b6105be575b5016801515806105b0575b610597575b501680151580610589575b610570575b5016908115159081610561575b5061054b575080f35b6001600160601b0360a01b600154161760015580f35b90506001541681141538610542565b6001600160601b0360a01b600254161760025538610535565b508260025416811415610530565b6001600160601b0360a01b600554161760055538610525565b508260055416811415610520565b6001600160601b0360a01b600454161760045538610515565b508260045416811415610510565b6001600160601b0360a01b600354161760035538610505565b508260035416811415610500565b869493918593985061063590828593903d10610641575b61062d8183611d88565b810190611eb8565b979250819394506104ee565b503d610623565b6040513d8a823e3d90fd5b61066b919550823d84116106415761062d8183611d88565b93386104c7565b6106899150833d85116106415761062d8183611d88565b3861049d565b6040513d89823e3d90fd5b6106b19150823d84116106415761062d8183611d88565b38610479565b6040513d88823e3d90fd5b816106da9293503d84116106415761062d8183611d88565b9038610455565b6040513d87823e3d90fd5b5081600080516020612411833981519152541633141561042c565b50346101b05760203660031901126101b0576004358152600760205260ff60408220541690600882101561074357602082600760405191148152f35b634e487b7160e01b81526021600452602490fd5b50346101b05760203660031901126101b0576020610776600435611f50565b6040516001600160a01b039091168152f35b50346101b05760203660031901126101b057600435808252600860205260408220546001600160a01b0316330361024357806107c661024092611f83565b61222f565b50346101b05760a03660031901126101b0576107e5611d13565b6024356001600160401b0381116103c457610804903690600401611e8b565b6044929192356001600160401b038111610db157610826903690600401611e8b565b9190936064356001600160401b038111610dad57610848903690600401611e8b565b908115610d9b5760843515610d89578315610d77578415610d655761086e913691611dc4565b946006549560006060918051610c04575b5060405161088c81611d52565b6000815260843560208201526213c6804201604082015288600052600760205260406000209080516008811015610bee576002916108cc60409285611ed7565b602081015160018501550151910155604051906108e882611d52565b33825260208201928352604082015287600052600860205260406000209160018060a01b038251166001600160601b0360a01b845416178355518051906001600160401b038211610bd85761094060018501546121f5565b601f8111610b91575b50602090601f8311600114610b1c57918060029492604094600092610b11575b50508160011b916000199060031b1c19161760018501555b01519101556001600654016006556000602060018060a01b0360015416602460405180948193632b956ff760e01b83523360048401525af1918215610b055788958892600094610ab5575b5090600080516020612451833981519152916109f5604051928392602084526020840191611f07565b0390a36003546001600160a01b031690813b15610ab15783610a2f956040519687958694859363399f900b60e21b85528b60048601611f28565b03925af18015610aa657610a92575b602082807f8aa4fa52648a6d15edce8a179c792c86f3719d0cc3c572cf90f91948f0f2cb68836040516084358152a280600080516020612431833981519152836040516213c68042018152a2604051908152f35b610a9c8391611d3f565b6103d35781610a3e565b6040513d85823e3d90fd5b8380fd5b9650925090506020853d602011610afd575b81610ad460209383611d88565b81010312610af85760008051602061245183398151915287918996519390916109cc565b600080fd5b3d9150610ac7565b6040513d6000823e3d90fd5b015190503880610969565b906001850160005260206000209160005b601f1985168110610b795750926002949260019260409583601f19811610610b60575b505050811b016001850155610981565b015160001960f88460031b161c19169055388080610b50565b91926020600181928685015181550194019201610b2d565b600185016000526020600020601f840160051c810160208510610bd1575b601f830160051c82018110610bc5575050610949565b60008155600101610baf565b5080610baf565b634e487b7160e01b600052604160045260246000fd5b634e487b7160e01b600052602160045260246000fd5b610c49929150600080604051936020948c8682015233821b604082015260348152610c2e81611d52565b60405196879187830193888552604080850152830190611e3e565b0395610c5d601f1997888101835282611d88565b51906001600160981b015afa610c716123e0565b9015610d2a57600091829184815191015190858110610d1a575b5090610cc1829660405192610c9f84611d6d565b858452610cb56040519485928a840197886123ae565b03908101835282611d88565b51906003600160981b015afa90610cd66123e0565b9115610ce45750903861087f565b6064906040519062461bcd60e51b82526004820152600f60248201526e195b98dc9e5c1d0e8819985a5b1959608a1b6044820152fd5b831990860360031b1b1638610c8b565b60405162461bcd60e51b81526004810184905260136024820152721c985b991bdb509e5d195cce8819985a5b1959606a1b6044820152606490fd5b604051636dbcdd3760e11b8152600490fd5b604051632761c7f960e21b8152600490fd5b604051632c3be8db60e21b8152600490fd5b604051630f35a7eb60e21b8152600490fd5b8680fd5b8480fd5b50346101b05760403660031901126101b05760243560088110156103d357815460405163103864a360e11b815233600482015290602090829060249082906001600160a01b03165afa908115610aa6578391610e1e575b5015610243576102409060043561229b565b610e37915060203d60201161027d5761026f8183611d88565b38610e0c565b50346101b057610e4c36611d29565b825460405163103864a360e11b815233600482015290602090829060249082906001600160a01b03165afa908115610284578491610e94575b50156102435761024091612024565b610ead915060203d60201161027d5761026f8183611d88565b38610e85565b50346101b05760803660031901126101b05760443560043560088210156103c457825460405163103864a360e11b815233600482015290602090829060249082906001600160a01b03165afa908115610284578491610f35575b501561024357610f2c61024092610f266024358461232c565b8261229b565b60643590612375565b610f4e915060203d60201161027d5761026f8183611d88565b38610f0d565b50346101b05760603660031901126101b057610f6e611d13565b6024356001600160401b0381116103c457610f8d903690600401611e8b565b6044929192356001600160401b038111610db157610faf903690600401611e8b565b9190938115610d77578215610d655760405194610fcb86611d6d565b868652600654956000606091896112df575b50604051610fea81611d52565b60068152600060208201526000604082015288600052600760205260406000209080516008811015610bee5760029161102560409285611ed7565b6020810151600185015501519101556040519061104182611d52565b33825260208201928352604082015287600052600860205260406000209160018060a01b038251166001600160601b0360a01b845416178355518051906001600160401b038211610bd85761109960018501546121f5565b601f8111611298575b50602090601f83116001146112255791806002949260409460009261121a575b50508160011b916000199060031b1c19161760018501555b01519101556001600654016006556000602060018060a01b0360015416602460405180948193632b956ff760e01b83523360048401525af1918215610b0557889588926000946111cf575b50906000805160206124518339815191529161114e604051928392602084526020840191611f07565b0390a36003546001600160a01b031690813b15610ab15783611188956040519687958694859363399f900b60e21b85528b60048601611f28565b03925af18015610aa6576111bb575b602082806000805160206124718339815191528360405160068152a2604051908152f35b6111c58391611d3f565b6103d35781611197565b9650925090506020853d602011611212575b816111ee60209383611d88565b81010312610af8576000805160206124518339815191528791899651939091611125565b3d91506111e1565b0151905038806110c2565b90601f198316916001860160005260206000209260005b81811061128057509260019285926040966002989610611267575b505050811b0160018501556110da565b015160001960f88460031b161c19169055388080611257565b9293602060018192878601518155019501930161123c565b600185016000526020600020601f840160051c8101602085106112d8575b601f830160051c820181106112cc5750506110a2565b600081556001016112b6565b50806112b6565b611309929150600080604051936020948c8682015233821b604082015260348152610c2e81611d52565b039561131d601f1997888101835282611d88565b51906001600160981b015afa6113316123e0565b9015610d2a57600091829184815191015190858110611382575b509061135f829660405192610c9f84611d6d565b51906003600160981b015afa906113746123e0565b9115610ce457509038610fdd565b831990860360031b1b163861134b565b50346101b05760203660031901126101b05760043560ff81168082036103c4578254604051634162169f60e01b81526001600160a01b03916020908290600490829086165afa9081156106e157859161144c575b5016330361143a57801590811561142f575b5061141d576005805460ff60a01b191660a09290921b60ff60a01b1691909117905580f35b604051636a43f8d160e01b8152600490fd5b60c8915011386113f8565b6040516327568d2f60e11b8152600490fd5b611465915060203d6020116106415761062d8183611d88565b386113e6565b50346101b05760203660031901126101b057805460405163103864a360e11b81523360048201526001600160a01b0392916020908290602490829087165afa9182156114f357916114d4575b5015610243576020906114cb600435611f50565b60405191168152f35b6114ed915060203d60201161027d5761026f8183611d88565b386114b7565b604051903d90823e3d90fd5b50346101b05761151c61152d61151436611dfb565b929092612098565b916001600160a01b03918291611f50565b16911690810361024357602090604051908152f35b50346101b05760203660031901126101b05760048054604051630da0ade560e41b815282359281018390526001600160a01b03916020908290602490829086165afa9081156102845784916115b9575b501633036115a757806107c661024092611fb5565b60405163239700bf60e11b8152600490fd5b6115d2915060203d6020116106415761062d8183611d88565b38611592565b50346101b05760203660031901126101b05760026040602092600435815260078452200154604051908152f35b50346101b05760203660031901126101b05761161f611d13565b600080516020612411833981519152805490916001600160a01b0390818316330361166e571690811561165c576001600160a01b03191617905580f35b60405163d92e233d60e01b8152600490fd5b604051637bfa4b9f60e01b8152600490fd5b50346101b057806003193601126101b0576020600654604051908152f35b50346101b05760203660031901126101b05760206116bd60043561210e565b6116ca6040518092611e7e565bf35b50346101b057806003193601126101b0577f360894a13ba1a3210667c828492db98dca3e2076cc3735a920a3ca505d382bbc546040516001600160a01b039091168152602090f35b50346101b0576020806003193601126103d3578154604051634162169f60e01b815260048035936001600160a01b03939092918391839190829087165afa80156106e1578391869161190c575b5016330361143a5761177283611f50565b5082845260079182825260ff60408620541660088110156118795783146118fa57848160045416604051630da0ade560e41b81528660048201528481602481855afa8015610aa657849184916118dd575b501661188d575b5084905282825260ff6040862054166008811015611879579081600687931415908161186d575b50611825575b508390528181526040808520805460ff1916841790555191825260008051602061247183398151915291a280f35b60035416803b156103d357818091602460405180948193630852cd8d60e31b83528a60048401525af180156103c857156117f75761186290611d3f565b610ab15783386117f7565b600591501415386117f1565b634e487b7160e01b86526021600452602486fd5b803b156103d357819060446040518094819363a3b979c360e01b83528a6004840152600160248401525af180156106b7576118ca575b85906117ca565b6118d690959195611d3f565b93386118c3565b6118f49150863d88116106415761062d8183611d88565b386117c3565b60405163b1cf6f0360e01b8152600490fd5b6119239150833d85116106415761062d8183611d88565b38611761565b50346101b05761194e61193b36611dfb565b90916001600160a01b0391829190612098565b16908115611b935761195f8361210e565b6008811015806118795781158015611b87575b818115611b77575b5015611ade57505061198b83611f50565b1603610243575b815260209060088252604081209060028201546001809301604051908584958254926119bd846121f5565b8086529360018116908115611abd5750600114611a83575b505050506119e68184950382611d88565b611a1a604051916119f683611d6d565b848352611a0c60405193849289840196876123ae565b03601f198101835282611d88565b51906004600160981b015afa90611a2f6123e0565b9115611a4d57611a49604051928284938452830190611e3e565b0390f35b6064906040519062461bcd60e51b82526004820152600f60248201526e191958dc9e5c1d0e8819985a5b1959608a1b6044820152fd5b86528186209196508592915b828410611aaa575050508101909301926119e68584836119d5565b8054858501890152928701928101611a8f565b60ff19168487015250505090151560051b82010193506119e68584836119d5565b611b635760058114908115611b58575b50611afb575b5050611992565b60246020826004541660405192838092630da0ade560e41b82528860048301525afa9081156106e1578591611b39575b501603610243573880611af4565b611b52915060203d6020116106415761062d8183611d88565b38611b2b565b600391501438611aee565b634e487b7160e01b85526021600452602485fd5b905061187957600282148161197a565b50508460018214611972565b60405163c1ab6dc160e01b8152600490fd5b50346101b057611bb436611d29565b6001600160a01b03611bc583611f50565b16330361024357611bd582611f83565b611bde82611fd8565b6213c6808111611bf15761024091612024565b6040516302e8f35960e31b8152600490fd5b50346101b05760203660031901126101b057611c1d611d13565b600080516020612411833981519152546001600160a01b03908116330361166e57813b15611c7c577f360894a13ba1a3210667c828492db98dca3e2076cc3735a920a3ca505d382bbc91166001600160601b0360a01b82541617905580f35b60405163340aafcd60e11b8152600490fd5b50346101b057806003193601126101b057602060ff60055460a01c16604051908152f35b9050346103d35760203660031901126103d357611ccd611d13565b600080516020612411833981519152546001600160a01b03929083163303611d04575082546001600160a01b031916911617815580f35b637bfa4b9f60e01b8152600490fd5b600435906001600160a01b0382168203610af857565b6040906003190112610af8576004359060243590565b6001600160401b038111610bd857604052565b606081019081106001600160401b03821117610bd857604052565b602081019081106001600160401b03821117610bd857604052565b90601f801991011681019081106001600160401b03821117610bd857604052565b6001600160401b038111610bd857601f01601f191660200190565b929192611dd082611da9565b91611dde6040519384611d88565b829481845281830111610af8578281602093846000960137010152565b906040600319830112610af85760043591602435906001600160401b038211610af85780602383011215610af857816024611e3b93600401359101611dc4565b90565b919082519283825260005b848110611e6a575050826000602080949584010152601f8019910116010190565b602081830181015184830182015201611e49565b906008821015610bee5752565b9181601f84011215610af8578235916001600160401b038311610af85760208381860195010111610af857565b90816020910312610af857516001600160a01b0381168103610af85790565b906008811015610bee5760ff80198354169116179055565b90816020910312610af857518015158103610af85790565b908060209392818452848401376000828201840152601f01601f1916010190565b9081526001600160a01b039091166020820152606060408201819052611e3b93910191611f07565b6000908152600860205260409020546001600160a01b03168015611f715790565b6040516337381c9960e21b8152600490fd5b600052600760205260ff604060002054166008811015610bee57611fa357565b6040516307a92f1960e51b8152600490fd5b600052600760205260ff604060002054166008811015610bee57600503611fa357565b600052600760205260026040600020015442811090811561200d575b50611ffb57565b60405163c8af701160e01b8152600490fd5b90506203f480420190814211610386571138611ff4565b908015612086576000828152600760205260026040822001549182018092116120725781600080516020612431833981519152926002604084876020965260078652200155604051908152a2565b634e487b7160e01b81526011600452602490fd5b6040516302824e7360e31b8152600490fd5b339033156120a4575090565b6002546040516319510d6760e01b81526020600482018190529093509183916001600160a01b031690829081906120df906024830190611e3e565b03915afa908115610b05576000916120f5575090565b611e3b915060203d6020116106415761062d8183611d88565b60009080825260076020526040822091600260ff845416930154421161213357505090565b90916008811015806121e1576001821480156121d5575b156121bc57505060048054604051630da0ade560e41b8152918201939093526001600160a01b03926020908290602490829087165afa9182156114f3579161219d575b501661219857600690565b600390565b6121b6915060203d6020116106415761062d8183611d88565b3861218d565b9092506107435750600581146121cf5790565b50600690565b5050816002821461214a565b634e487b7160e01b83526021600452602483fd5b90600182811c92168015612225575b602083101461220f57565b634e487b7160e01b600052602260045260246000fd5b91607f1691612204565b6000818152600760205260ff604082205416600881101561228757600603612255575050565b808260409252600760205220600660ff19825416179055600080516020612471833981519152602060405160068152a2565b634e487b7160e01b82526021600452602482fd5b906008811015610bee578015611fa35760058114612310575b6000828152600760205260ff60408220541660088110156122875782036122da57505050565b816123006000805160206124718339815191529360408487602096526007865220611ed7565b61230d6040518092611e7e565ba2565b6213c6804201804211610386576123279083612375565b6122b4565b9080612336575050565b60207f8aa4fa52648a6d15edce8a179c792c86f3719d0cc3c572cf90f91948f0f2cb6891836000526007825280600160406000200155604051908152a2565b90428111612381575050565b602060008051602061243183398151915291836000526007825280600260406000200155604051908152a2565b916123d290611e3b9492600085526020850152608060408501526080840190611e3e565b916060818403910152611e3e565b3d1561240b573d906123f182611da9565b916123ff6040519384611d88565b82523d6000602084013e565b60609056feb53127684a568b3173ae13b9f8a6016e243e63b6e8ee1178d6a717850b5d6103b50b49938e915b0ab39e99a2d0810e190d6a377647ef06ec45b1e54b892968a64b49bc70b6bd0e150245f0c265d8dc2c41b30d3062d637816e8402820162dc13f5da82b1649f3e1bf563baf1aed70575caf9bda52414029afc923bbce28e99dda26469706673582212202c5503144dadf99ff77d66dadc1a0a923f6932b9010f61d96c6bfe61555c1a3b64736f6c63430008180033",
  "linkReferences": {},
  "deployedLinkReferences": {}
}